:020000040040BA
:10000000502E4020C9104000C7104000C7104000CB
:10001000C7104000C7104000C7104000000000009B
:10002000000000000000000000000000A1144000DB
:10003000C71040000000000041154000A915400015
:10004000C7104000C7104000C7104000C710400054
:10005000C7104000C7104000C7104000C710400044
:10006000C710400000000000B90D4000CD0D400059
:10007000E10D4000C7104000C7104000C71040000D
:10008000F50D4000090E4000C7104000C7104000A9
:10009000C7104000C7104000C7104000C710400004
:1000A000C7104000C7104000C7104000C7104000F4
:1000B000C7104000C7104000C7104000C7104000E4
:1000C000C7104000C7104000C7104000C7104000D4
:1000D00000000000C710400000000000C7104000F2
:1000E000C7104000C7104000C7104000C7104000B4
:1000F000C7104000C7104000C7104000C7104000A4
:10010000C7104000C7104000C7104000C710400093
:10011000C7104000000000000000000000000000C8
:10012000C7104000C7104000C7104000C710400073
:10013000C710400000000000C7104000C71040007A
:1001400010B5054C237833B9044B13B10448AFF311
:1001500000800123237010BDC00940200000000072
:10016000349140000C4B43B10C480D4910B5AFF32E
:1001700000800C48036823B910BD0A48036833B9EE
:100180007047094B002BF7D0BDE810401847064BCD
:10019000002BF5D0184700BF00000000349140004C
:1001A000C4094020349140000000000008B5074B0E
:1001B000984203D0064B984204D008BD1520054B49
:1001C000984708BD2A20034B9847F6E70080004077
:1001D000008005403D0F4000436823F470234360D6
:1001E0004368090401F4702119434160704730B439
:1001F00043F69924056915F0020F03D1013CF9D1AA
:1002000001200CE0446814F0020F06D0120402F43E
:10021000702211430BB141F08071C160002030BCED
:10022000704732B900EB8100036B23F001030363D5
:10023000704700EB8100036B43F0010303637047D9
:1002400032B900EB8100036B23F0020303637047B4
:1002500000EB8100036B43F0020303637047042A41
:1002600003D06AB1082A16D0704700EB8100036BF7
:1002700023F008030363036B43F004030363704735
:1002800000EB8100036B23F008030363036B23F08F
:1002900004030363704700EB8100036B43F0080322
:1002A0000363E1E700EB81010B6B23F0F0030B63C9
:1002B0000B6B1A430A637047431E1944B1FBF0F0FD
:1002C000431EFE2B94BF00B24FF0FF3070477AB14F
:1002D00010B4144600EB81010B6B23F47F430B63D6
:1002E0000A6B42EA04220A6300205DF8044B70475F
:1002F0004FF0FF3070470000014B1860704700BF9F
:10030000DC094020024B1B6803EBC01042547047CD
:10031000DC094020024B1B6803EBC010405C7047B7
:10032000DC094020002A48D02DE9F04714461F463A
:1003300006464A1E2244D2B2914231D01F2A28BF1B
:100340001F221546CC084FEAD20801F00702FF230E
:1003500003FA02F2D2B205F00705C5F1070543FA28
:1003600005F5EDB2444520D03B4601462046DFF876
:100370004C90C8470134A0450AD94FF0FF0A3B46CC
:10038000524631462046C8470134E4B2A045F6D86B
:100390003B462A4631464046084CA047BDE8F08718
:1003A0001A46074B9847BDE8F0873B462A4001466E
:1003B0002046024CA047BDE8F0877047E5054000A5
:1003C000810540002DE9F04F85B0814600910193F1
:1003D0009DF838B07AB116465500C5F103050127DE
:1003E0004FF000080BF003030293DFF8F0A00BF0CE
:1003F0000C0303934DE01A46374B984705B0BDE810
:10040000F08F009B191B09EB0600019B3A46C9B20D
:10041000C0B2D047721C0099891B09EB0400019BF4
:10042000D2B2C9B2C0B2D04738E0009B191BA9EBC9
:100430000600019B3A46C9B2C0B2D047721C00996F
:10044000891BA9EB0400019BD2B2C9B2C0B2D0474C
:1004500027E0A9EB0600019B3A460099C0B2D047BD
:10046000721CA9EB0400019BD2B20099C0B2D04724
:100470001AE0002D2BDBA41B0A3505EB840425B202
:10048000013EF6B208F101087B1CDBB2BE42B5D3D7
:100490001F465FFA88F4029B002BB2D1039B002B0E
:1004A000C3D11BF0300FD4D11BF0C00FE1D009EB4A
:1004B0000600019B3A460099C0B2D047721C09EB76
:1004C0000400019BD2B20099C0B2D047D1E70635F3
:1004D00005EB84052DB2D5E78105400025034000DA
:1004E00070B504460D4616461BB90D4B9847B042F1
:1004F00015D03246294620460A4B984704F00F0093
:1005000040F0B000084CA047C5F3021040F01000C6
:10051000A04705F00F00A0473046044B984770BD38
:10052000150340000503400029064000490840002B
:100530002DE9F0410D480E4B98470E4B984740204F
:100540000D4B984700254FF001082F460B4E002415
:1005500043463A46E1B22846B0470134802CF7D1F1
:100560000135EDB2042DF2D1BDE8F081E009402063
:10057000F90240006906400029064000E1044000FD
:10058000C3092AD11F2928D82DE9F0411446054670
:10059000CE08A1EBC601012202FA01F75FFA87F843
:1005A000014630460D4B98470246012C09D064B1F4
:1005B000022C0ED0002329463046094CA047BDE846
:1005C000F08148EA0002D2B2F4E720EA0702D2B290
:1005D000F0E788EA0002D2B2ECE77047150340006A
:1005E000E1044000F8B505460E4617461C460C4B84
:1005F00098470246012C08D054B1022C0CD000239D
:1006000031462846074CA047F8BD3A43D2B2F6E738
:1006100020EA0702D2B2F2E77A40D2B2EFE700BF97
:1006200015034000E104400038B505460822094B97
:100630005A63094C01212046084B984701231A466A
:1006400029462046064CA0474FF4FD70054B9847BD
:1006500038BD00BF00100E4000800040D9014000AE
:10066000EF014000010040202DE9F843664D4FF4B2
:1006700000362E61C5F8A060644B08271F61C3F8DF
:10068000A0706E66C5F890606E656E62C5F8806099
:100690002A6F22F400322A676A6F22F400326A67F6
:1006A0005F66C3F890705F655F62C3F880701A6F11
:1006B00022F008021A675A6F22F008025A671F6078
:1006C0002E601F632E63DFF87C8100234FF48002CD
:1006D0004FF0805140464E4CA04700234FF400128B
:1006E0004FF080514046A04700234FF000724FF07A
:1006F00080514046A04700234FF480024FF08051C4
:100700004046A04700234FF400124FF0805140466E
:10071000A04700234FF000724FF080514046A047A1
:100720003C4C4FF00209C4F800904FF08008C4F828
:100730000080636843F0010363603A46012120466C
:10074000354B9847002201212046344B9847002220
:1007500001212046324B9847636823F0020363600F
:100760000022012120462F4B9847636823F0800325
:100770006360636843F0100363602B492B482C4B84
:100780009847C2B2012120462A4B984720462A4B5F
:100790009847012323606E6340F6B830274CA0478A
:1007A0002E6340F6B830A0472E63A820244CA04703
:1007B0001F20A047D320A0470020A0474020A047EB
:1007C000A120A047C820A047DA20A0474846A0475C
:1007D0008120A0478F20A047A420A047A620A047A3
:1007E000D520A0474046A0478D20A0471420A04711
:1007F000DB20A0474020A047D920A047F120A047F8
:10080000AF20A047BDE8F88300120E4000100E4054
:10081000290C4000008000405F024000230240009D
:1008200041024000A502400080D1F00880841E00F3
:10083000B9024000CF024000AD014000010040205D
:100840002906400000140E4038B505460822094B21
:100850001A63094C01212046084B984701231A4688
:1008600029462046064CA0474FF4FD70054B98479B
:1008700038BD00BF00100E4000800040D90140008C
:10088000EF0140000100402010B51048104B984780
:100890003E2100200F4B98470F4CA0470028FCD06A
:1008A0000E4B98470E4A0F4B9A620F4CA0470028F8
:1008B000FCD002200D4B984700200D4B98470D4B64
:1008C00098470248024B984710BD00BF00A3E111B2
:1008D0009D124000B90E40000D0F40001D0F40005A
:1008E000013F182000060E402D0F40001D0E400055
:1008F000550E4000911140002DE9F04180B90C46A1
:100900009046002A0FDD8F18084E094D30682146A9
:100910002B6898470134BC42F8D14046BDE8F081CD
:100920004FF0FF38F9E78046F7E700BFD80D4020C9
:10093000D00D40200138022815D82DE9F0410E468F
:1009400014469AB10D46DFF838800C4FD8F80000F5
:1009500015F8011B3B68984700280ADBA81B013CDF
:10096000F4D1BDE8F0814FF0FF3070471046BDE88C
:10097000F0814FF0FF30BDE8F08100BFD40D402082
:10098000D80D4020F8B54FF400425C4B5A60BFF3DD
:100990004F8FBFF36F8F5A4B0022C3F850225A6912
:1009A00042F400325A61BFF34F8FBFF36F8FD3F819
:1009B0008070C7F34E3607F007000430C7F3C9074D
:1009C000B7FA87FE0EF01F0EBFF34F8F4FF0FF34C4
:1009D00004FA00FC06FA00F004FA0EF407FA0EFE20
:1009E0001D463A46734640EA0301C5F86012013AD3
:1009F0002344B2F1FF3FF6D1013E6044B6F1FF3F20
:100A0000EFD1BFF34F8F3E4B5A6942F480325A61A7
:100A1000BFF34F8FBFF36F8F3A4A3B495160A1F547
:100A200080715160BFF34F8FBFF36F8FD3F8902267
:100A300022F00102C3F89022D3F8942222F001029E
:100A4000C3F89422BFF34F8FBFF36F8F0A202F4C50
:100A5000A0470B20A0470C20A0471020A047112042
:100A6000A0472B4B4FF480721A61C3F8A0201A6381
:100A7000A3F580634FF400625A61C3F8A0205A6660
:100A8000C3F890205A651A62C3F88420196F21F4C4
:100A900000611967596F21F400615967C3F8C020DC
:100AA000C3F8D420C3F8B0204FF400121A66C3F87C
:100AB00090205A655A62C3F88020196F21F4001102
:100AC0001967596F21F4001159675A60114AD2F819
:100AD000143143F01003C2F814310F4B10221A6680
:100AE000C3F890205A655A62C3F88020196F1143E9
:100AF0001967596F114359675A60F8BD50180E4075
:100B000000ED00E0000C0E400C08005A3D0F4000C4
:100B100000120E400080084000100E40C0F8841003
:100B200053004FF40042B2FBF3F2013AC2F30D025C
:100B3000C0F88C2070474264B1F1C05F3AD013D83E
:100B4000B1F1006F25D0B1F1805F0AD1036F13437B
:100B50000367436F416F0B4023EA02034367426020
:100B600070470029FBD17047B1F1205F21D009D82F
:100B7000B1F1005FF3D1036F13430367436F134376
:100B80004367ECE7B1F1405F13D0B1F1605F10D083
:100B9000E5E710B4016F046FD34321401C461940B0
:100BA0000167436F416F0B402340436742605DF82C
:100BB000044B7047036F016F0B4023EA0203036786
:100BC000436F13434367CAE7416412F0010F0DD12D
:100BD000016612F00A0F0BD0016212F0020F09D168
:100BE00012F0080F08D0C0F8841005E04166F0E765
:100BF0004162F2E7C0F8801041610160704710B4B3
:100C0000019C41644CB901664BB101654AB941632D
:100C1000016101605DF8044B70474166F4E741658E
:100C2000F4E70163F4E7000070B582B005461646AC
:100C30001C46B1F1005F14D00AD9B1F1405F24D055
:100C4000B1F1605F21D0B1F1205F17D000201AE030
:100C5000B1F1805F05D0B1F1C05F02D0B1F1006F9A
:100C6000F4D132462846114B984714F0010F02D1B7
:100C70002E66012007E06E66012004E01A46314628
:100C80000B4B9847012002B070BD04F001030093A4
:100C9000C4F38003B1F1605F14BF0022012231462A
:100CA0002846044CA0470120EDE700BF370B400069
:100CB000C90B4000FF0B400012F0100F12D0C0F81B
:100CC000B01012F0200F07D0C0F8D41012F0400F6F
:100CD00005D0C0F8C0107047C0F8D010F6E7C0F8D3
:100CE000C4107047C0F8B410704701647047C06CFE
:100CF0007047806C704700002DE9F041044688463B
:100D00000E4B9847054620460D4B9847054013D09B
:100D10000C4C04F1600603E0B4420DD010345DB118
:100D200020684045F8D161682942F5D0E3689847CA
:100D3000636825EA0305EFE7BDE8F081EF0C4000AA
:100D4000F30C4000E00B4020F8B5184C2668062E46
:100D50002AD84FF0000C6446154F04E00134E4B289
:100D6000A446A64209D3A64625017D598D42F5D158
:100D700007EB04156D689542F0D10D4D4FEA0E1E3C
:100D800005EB0E0445F80E106260A3600699E16061
:100D90000136664505D011461A46064B9847002095
:100DA000F8BD02490E60F6E70120F8BD500C402066
:100DB000E00B4020B90C400008B50A210148024B65
:100DC000984708BD000E0E40F90C400008B50B21F5
:100DD0000148024B984708BD00100E40F90C400036
:100DE00008B50C210148024B984708BD00120E407F
:100DF000F90C400008B510210148024B984708BD86
:100E000000140E40F90C400008B511210148024BB6
:100E1000984708BD00160E40F90C4000032811D079
:100E2000042812D002280CBF4FF480710021084A18
:100E3000136B23F440730B431363936E13F0080F8B
:100E4000FBD070474FF44071F1E74FF40071EEE7CB
:100E500000060E40174A136B23F07003184310630B
:100E6000936E13F0080F0AD14FF4805311498A6E24
:100E700012F0080F03D1013BF9D1012070470D4A50
:100E8000136B23F0030343F002031363936E13F019
:100E9000080F0AD14FF4805306498A6E12F0080FEA
:100EA00005D1013BF9D10120704700207047002097
:100EB000704700BF00060E40A0B90E48036A090241
:100EC00089B20D4A1A400D4B134319430162024681
:100ED000936E13F0010FFBD0064A116A084B0B43C7
:100EE0001362704703490B6A064A1A40064B1343C4
:100EF0000B62704700060E40FCFFC8FF0100370080
:100F000000003701FCFFC8FE02003701024B986E5B
:100F100000F48030704700BF00060E404FF00052D2
:100F2000014B9A62704700BF00060E40024B986E5C
:100F300000F00200704700BF00060E403F281ED898
:100F40001F280CD8114B9A6901238340934318D072
:100F5000012303FA00F00D4B186100207047203880
:100F60000A4BD3F808210123834093430BD001237C
:100F700003FA00F0054BC3F8000100207047012080
:100F80007047002070470020704700BF00060E40E9
:100F9000436913F0020F02D0C161002070470120A5
:100FA0007047436913F0010F03D083690B70002071
:100FB00070470120704710B40B01934214D9C90047
:100FC0004B0803EBC202B2FBF1F2D3085C1E4FF6F2
:100FD000FE718C4201D9012017E0416841F40021E3
:100FE00041600CE0012010E0590801EBC202B2FBA5
:100FF000F3F2D3085C1E4FF6FE718C42F2D8120455
:1010000002F4E0221A43026200205DF8044B7047AC
:10101000084BC0F8E43000234360436283628823B6
:101020000360242303604FF4807303604FF40023B4
:10103000036070470041535570B505460C4616468F
:101040000F4B984700220F4B1A60A4B1324621681B
:1010500028460D4B9847024678B96368A1680B4350
:1010600021690B43E1680B4306490B6069680B4338
:101070006B60104670BD0122FBE70122F9E700BF5B
:1010800011104000540C4020B70F40004023036073
:101090007047102303607047436913F0020F04D0B8
:1010A000C1F30801C1610020704701207047436906
:1010B00013F0010F05D08369C3F308030B60002010
:1010C000704701207047FEE700B583B0254B264AE4
:1010D0009A4210D0254B234A9A420CD2013B9B1ACC
:1010E00023F00303043313441F4951F8040B42F85F
:1010F000040B9A42F9D11E4B1E4A9A420AD2013B76
:101100009B1A23F0030304331344002142F8041B09
:101110009342FBD1184A194B23F07F039360EFF3FE
:101120001083B3FA83F35B09019372B6BFF35F8F49
:101130000022134B1A700199124A136843F470038A
:101140001360BFF34F8FBFF36F8F29B101220C4B98
:101150001A70BFF35F8F62B60B4B98470B4B9847E3
:10116000FEE700BF0000402034914000C00940204D
:101170004C0E4020C009402000ED00E0000040007F
:101180000A00402088ED00E049354000B9334000B6
:101190003B4B1B6B03F00303012B1DD083B1022BD0
:1011A00036D0374B1B6B03F07003702B5FD0344B82
:1011B0001A6B3449C2F302120B68D3400B607047BC
:1011C000314B5B6913F0800F14BF4FF400424FF4B2
:1011D000FA422C4B1A60E4E7294B1B6A13F0807F1C
:1011E00003D02A4A274B1A60DBE7294A254B1A60AD
:1011F000234B1B6A03F07003102B05D0202BD0D19A
:10120000224A204B1A60CCE7224A1E4B1A60C8E7DC
:101210001B4B1B6A13F0807F16D01C4A194B1A60B7
:10122000174B1B6B03F00303022BBAD1144A916ACC
:10123000926A1448C1F30A41036801FB0333D2B236
:10124000B3FBF2F30360ACE7114A0E4B1A600C4B90
:101250001B6A03F07003102B05D0202BE0D10B4A42
:10126000084B1A60DCE70B4A064B1A60D8E7054AC0
:1012700013680949A1FB03135B081360704700BFA3
:1012800000060E400C00402010180E40001BB70056
:1012900000093D0000127A00ABAAAAAA164B984298
:1012A00013D9164B984215D9154B984216D9154BA0
:1012B000984217D9144B984218D9144B984294BFAE
:1012C000134A144A144B1A6070474FF08062124B55
:1012D0001A607047114A104B1A607047104A0E4B43
:1012E0001A6070470F4A0C4B1A6070474FF0042287
:1012F000094B1A60704700BFBFF35E017FE7BD0274
:101300003FDB1C04FFCE7B05BFC2DA067FB639087F
:101310000005000400060004000C0E40000100045B
:1013200000020004000300040A4B1B6853B1094B80
:101330001B681A180849914208DB1046054A1060DC
:1013400018467047054A034B1A60F0E74FF0FF302C
:10135000704700BF580C4020FCFF45205030402013
:101360004FF0FF3070474FF400534B600020704740
:10137000012070470020704700F1080343604FF0E0
:10138000FF328260C3600361002303607047002363
:101390000361704743684B609A688A609A6851603D
:1013A00099600861036801330360704730B40D68C9
:1013B000B5F1FF3F02D000F1080202E0026904E04B
:1013C0001A4653681C68A542FAD253684B6099606C
:1013D0008A605160086103680133036030BC704764
:1013E00003694268816891608268416851605A6807
:1013F000904205D0002202611868013818607047D9
:1014000082685A60F6E700000D4B1B68B3F1FF3F9E
:101410000AD04FF0800372B683F31188BFF36F8F49
:10142000BFF34F8F62B6FEE74FF0800372B683F3CF
:101430001188BFF36F8FBFF34F8F62B6FEE700BF17
:101440001000402006480068006880F3088862B6F3
:1014500061B6BFF34F8FBFF36F8F00DF00BF000097
:1014600008ED00E0DFF80C00016841F47001016054
:101470007047000088ED00E04FF0807340F8043CB6
:1014800040F8081C054B40F80C3C40F8202C6FF04D
:10149000020340F8243C4438704700BF0914400060
:1014A000064B19680868B0E8F04F80F30988BFF36D
:1014B0006F8F4FF0000080F311887047640C40205C
:1014C000704700BF4FF0800372B683F31188BFF3FB
:1014D0006F8FBFF34F8F62B60B4A136801331360EF
:1014E000012B0FD1094B1B6813F0FF0F0AD04FF0EF
:1014F000800372B683F31188BFF36F8FBFF34F8FF2
:1015000062B6FEE7704700BF1000402004ED00E027
:101510000A4B1B6853B94FF0800372B683F31188EE
:10152000BFF36F8FBFF34F8F62B6FEE7013B034AF5
:1015300013600BB983F31188704700BF100040207F
:10154000EFF30980BFF36F8F154B1A681EF0100F71
:1015500008BF20ED108A20E9F04F10604DF8043DDF
:101560004FF0800072B680F31188BFF34F8FBFF346
:101570006F8F62B601F0FEF84FF0000080F3118823
:1015800008BC19680868B0E8F04F1EF0100F08BFDB
:10159000B0EC108A80F30988BFF36F8F704700BFEB
:1015A000640C4020704700BF08B5EFF311834FF083
:1015B000800272B682F31188BFF36F8FBFF34F8F33
:1015C00062B6054B984718B14FF08052034B1A6032
:1015D000002383F3118808BDE123400004ED00E0FF
:1015E000034A044B1A600722043B1A60704700BF8D
:1015F000BF27090014E000E000B583B0254B1A783E
:10160000D2B20192FF221A701B78DBB28DF8033040
:101610009DF8033003F080031F4A137007221F4B0D
:101620001A609DF8033013F0800F10D0062200E0FE
:101630000A469DF803305B00DBB28DF803309DF85D
:101640000330511E13F0800FF2D1144B1A60134A6D
:1016500013681B0203F4E0631360019BDBB20D4AC5
:1016600013700F4B1A6842F460021A601A6842F055
:1016700060421A600B4B984700220B4B1A600B4BD1
:1016800098470B4A136843F040431360094B98474F
:10169000094B984700E400E05C0C4020600C4020BF
:1016A00020ED00E0E11540001000402065144000EE
:1016B00034EF00E04514400009144000EFF30583C7
:1016C0000F2B11D9124A9B5CDBB2124A12789A4254
:1016D0000AD94FF0800372B683F31188BFF36F8F7E
:1016E000BFF34F8F62B6FEE70B4B1B6803F4E0635A
:1016F0000A4A126893420AD94FF0800372B683F304
:101700001188BFF36F8FBFF34F8F62B6FEE770474C
:10171000F0E300E05C0C40200CED00E0600C4020A9
:1017200010B50446064B98472046064B984704469A
:10173000054B98470CB1204610BD044B9847FAE77B
:10174000C5234000993540002D254000233340003B
:1017500048B110B50446044B98472046034B9847C0
:10176000034B984710BD7047C5234000A935400082
:101770002D25400038B504461546026C5AB9036859
:10178000002B2ED140681B4B984700236360A36B4E
:101790000133A36338BD6DB98068174B9847A368C0
:1017A000226C1344A360626893421CD32368A36035
:1017B0000020ECE7C068104B9847236C5B42E2685E
:1017C0001A44E26021688A4202D262681344E360EC
:1017D000022D0AD1A36B53B1A36B013BA36300207D
:1017E000D5E70020D3E70020D1E70020CFE7002095
:1017F000CDE700BF752B4000193B400030B583B0EA
:101800000190446D74B1A26BE36B9A4215D34FF013
:10181000800372B683F31188BFF36F8FBFF34F8FCE
:1018200062B6FEE74FF0800372B683F31188BFF310
:101830006F8FBFF34F8F62B6FEE7A26B934203D860
:101840000025284603B030BD0A4601A920460B4BAF
:1018500098470546A36CB3F1FF3F0AD1636A002B9A
:10186000EFD004F12400064B9847002818BF01254B
:10187000E7E7A36C0133A364E3E700BF75174000FB
:1018800049294000026C72B110B50346C468144483
:10189000C4604068844201D31868D8600846D9689B
:1018A000014B984710BD7047193B4000F8B50446FE
:1018B000224B9847A36C002B1BDD214D214F224E5C
:1018C0000BE0636AABB104F12400B04778B9A36CB4
:1018D000013BA364A36C002B0BDD636D002BF0D0E8
:1018E00000212046A8470128F1D1B847EFE7B847C3
:1018F000EDE74FF0FF33A364144B98470F4B984725
:10190000636C002B14DD236993B104F110060E4DB6
:101910000C4F07E0636C013B6364636C002B07DDD5
:1019200023692BB13046A8470028F3D0B847F1E728
:101930004FF0FF336364054B9847F8BDC514400072
:10194000FD174000A52A400049294000111540001C
:1019500038B508B304460D461D4B98472268216CE4
:10196000E36B03FB01F3D01860600020A063A2606A
:101970005B1A1344E3604FF0FF336364A364FDB963
:1019800023692BB104F11000124B984701280ED0A7
:10199000114B9847012038BD4FF0800372B683F396
:1019A0001188BFF36F8FBFF34F8F62B6FEE74FF022
:1019B00080520A4B1A60BFF34F8FBFF36F8FE7E778
:1019C00004F11000064DA84704F12400A847DFE702
:1019D000C5144000492940001115400004ED00E005
:1019E00079134000F8B550B94FF0800372B683F315
:1019F0001188BFF36F8FBFF34F8F62B6FEE70646C5
:101A000017460D4689B101FB00F05930124B98473B
:101A10000446E8B94FF0800372B683F31188BFF330
:101A20006F8FBFF34F8F62B6FEE758200A4B98477F
:101A300004460028EED02060E6632564012120469C
:101A4000064B984784F85070002363652046F8BD24
:101A500000F158030360EFE72117400051194000DF
:101A60002DE9F04F85B00192B8B1044601B3022BC5
:101A70002CD01D468846664B9847002834D1019BE0
:101A8000002B38D04FF0800372B683F31188BFF378
:101A90006F8FBFF34F8F62B6FEE74FF0800372B6D1
:101AA00083F31188BFF36F8FBFF34F8F62B6FEE7EA
:101AB000026C002ADBD04FF0800372B683F31188EA
:101AC000BFF36F8FBFF34F8F62B6FEE7E26B012A61
:101AD000CFD04FF0800372B683F31188BFF36F8FBE
:101AE000BFF34F8F62B6FEE700274A4EDFF850A1E2
:101AF000DFF82C9142E00027F7E72A4641462046CE
:101B0000454B9847636D9BB129462046434B984708
:101B1000012807D14FF08052414B1A60BFF34F8F1D
:101B2000BFF36F8F3F4B9847012005B0BDE8F08FA2
:101B3000636A73B104F124003B4B98470128F1D14B
:101B40004FF08052364B1A60BFF34F8FBFF36F8F49
:101B5000E8E70028E6D04FF08052314B1A60BFF31F
:101B60004F8FBFF36F8FDDE72E4B98470020DCE7E8
:101B700020462E4B98472E4B98470127B047A26B23
:101B8000E36B9A42B9D3022DB7D0019B002BEBD067
:101B90000FB902A8D047234B9847264B9847B04728
:101BA000636CB3F1FF3F01D100236364A36CB3F115
:101BB000FF3F01D10023A3641A4B984701A902A853
:101BC0001D4B9847E0B9B047D4F838B0E76B154BD8
:101BD0009847BB45CCD1019904F11000174B9847A9
:101BE0002046124B9847124B98470028C5D14FF01A
:101BF0008053C9F80030BFF34F8FBFF36F8FBCE73E
:101C000020460A4B98470A4B984700208DE700BFB3
:101C1000B12A4000C514400075174000FD17400070
:101C200004ED00E01115400049294000AD184000C6
:101C30002D254000C5234000112A400045284000C2
:101C4000E1294000002836D02DE9F0410446002962
:101C50003CD0022B48D01E4615468846354B984747
:101C6000EFF311874FF0800372B683F31188BFF34F
:101C70006F8FBFF34F8F62B6A26BE36B9A4201D3B3
:101C8000022E4FD13246414620462B4B9847A36C3B
:101C9000B3F1FF3F41D1636D002B33D03146204675
:101CA000264B9847002D3FD001283DD1286087F36F
:101CB0001188BDE8F0814FF0800372B683F311887C
:101CC000BFF36F8FBFF34F8F62B6FEE7006C002843
:101CD000BFD04FF0800372B683F31188BFF36F8FCC
:101CE000BFF34F8F62B6FEE7E06B0128B3D04FF031
:101CF000800372B683F31188BFF36F8FBFF34F8FEA
:101D000062B6FEE7636A8BB104F124000C4B98477E
:101D100075B168B101202860C9E7A36C0133A364E1
:101D20000120C4E70020C2E70120C0E70120BEE790
:101D30000120BCE7BD16400075174000FD174000AC
:101D40004929400070B170B50446036CABB14FF047
:101D5000800372B683F31188BFF36F8FBFF34F8F89
:101D600062B6FEE74FF0800372B683F31188BFF3CB
:101D70006F8FBFF34F8F62B6FEE7036833B30D4634
:101D8000254B9847EFF311864FF0800372B683F32B
:101D90001188BFF36F8FBFF34F8F62B6A26BE36BF7
:101DA0009A4231D2A36B0133A363A36CB3F1FF3F1B
:101DB00025D1636DC3B100212046184B98472DB340
:101DC000012823D1286086F3118870BD4368002B59
:101DD000D5D04FF0800372B683F31188BFF36F8FB5
:101DE000BFF34F8F62B6FEE7636A8BB104F1240044
:101DF0000B4B984775B168B101202860E3E7A36CED
:101E00000133A3640120DEE70020DCE70120DAE7EC
:101E10000120D8E70120D6E7BD164000FD1740009D
:101E2000492940002DE9F04784B0019298B1044659
:101E3000E1B198460F46614B984728BB019B53B3CD
:101E40004FF0800372B683F31188BFF36F8FBFF337
:101E50004F8F62B6FEE74FF0800372B683F31188AE
:101E6000BFF36F8FBFF34F8F62B6FEE7026C002A9D
:101E7000DFD04FF0800372B683F31188BFF36F8F0A
:101E8000BFF34F8F62B6FEE700264D4DDFF860A12D
:101E9000DFF83C914BE00026F7E7E568394620463D
:101EA000484B9847B8F1000F1DD1A36B013BA363CA
:101EB000236813B9444B9847606023696BB104F100
:101EC0001000424B9847012807D14FF08052404BF9
:101ED0001A60BFF34F8FBFF36F8F3E4B98470120BF
:101EE00004B0BDE8F087E560636A002BF5D004F12B
:101EF0002400364B98470028EFD04FF08052344BE7
:101F00001A60BFF34F8FBFF36F8FE6E7314B9847EF
:101F10000020E5E7A84760682F4B98472D4B98476E
:101F200030E020462D4B98472D4B98470126A84777
:101F3000A36B002BB1D1019B002BE7D00EB902A8F7
:101F4000D047244B9847274B9847A847636CB3F179
:101F5000FF3F01D100236364A36CB3F1FF3F01D1C4
:101F60000023A3641B4B984701A902A81E4B984766
:101F7000E8B9A847A66B174B9847002ED1D1236824
:101F8000002BC7D0019904F12400184B9847204634
:101F9000124B9847124B98470028C7D14FF08053F7
:101FA000C9F80030BFF34F8FBFF36F8FBEE72046F5
:101FB0000A4B98470A4B9847002091E7B12A400006
:101FC000C514400085184000312C400049294000CC
:101FD00004ED00E011154000D12A4000AD1840008A
:101FE0002D254000C5234000112A4000452840000F
:101FF000E129400010B40B4B1B6853B10123094C7D
:1020000054F8332032B10133082BF9D15DF8044B79
:1020100070470023034A42F8331002EBC3035860B1
:10202000F4E700BFDC0D402070B504460D461646AF
:102030000F4B9847636CB3F1FF3F0BD0A36CB3F128
:10204000FF3F0AD00B4B9847A36B4BB120460A4B7E
:10205000984770BD00236364F0E70023A364F1E7B1
:102060003246294604F12400044B9847EEE700BFAE
:10207000C514400011154000AD184000C9284000AB
:10208000084B1B681B683BB1064B1B68DB68DB68B1
:102090005A68054B1A6070474FF0FF32024B1A60C6
:1020A000704700BF680C4020140D402010B50F4B46
:1020B0001B6858600E4B1B6898420ED304460D4BAC
:1020C00018680A4B196804310B4B98470B4B1B6877
:1020D0009C4201D2094B1C6010BD094B1868034B90
:1020E00019680431044B984710BD00BF640C4020B0
:1020F0005C0D4020680C4020AD134000140D4020C2
:102100006C0C40202DE9F04F83B00C9DDDF834A01D
:102110000E9E60B1042D15D94FF0800372B683F383
:102120001188BFF36F8FBFF34F8F62B6FEE74FF09A
:10213000800372B683F31188BFF36F8FBFF34F8FA5
:1021400062B6FEE70190984691460F4636B9900078
:10215000624B98470646002800F09E8058205F4B4F
:1021600098470446002800F0948006634FEA8902ED
:10217000A52130465A4B98476FF040464E44236B9A
:1021800003EB860323F007063B7884F834303B7872
:10219000002B40F08480002784F83D70E562A56440
:1021A000E76404F104094846DFF884B1D84704F134
:1021B0001800D8472461C5F10503A361646227654F
:1021C00084F85470424601993046464B9847206047
:1021D000BAF1000F01D0CAF80040434B9847434A78
:1021E000136801331360424B1B68002B66D1404BD0
:1021F0001C601368012B21D13E4F38463E4EB0473C
:1022000007F11400B04707F12800B04707F13C0080
:10221000B04707F15000B047DFF818814046B0479B
:10222000364F3846B0473648B0473648B04736484C
:10223000B047364BC3F80080354B1F60354A1368F2
:10224000013313602364E06A334A11680123834039
:102250000B43136000EB80004946264B03EB8000E4
:102260002E4B98472E4B98472E4B1B68002B31D096
:102270001F4B1B68DB6A9D422ED94FF080522A4BC0
:102280001A60BFF34F8FBFF36F8F012003B0BDE81B
:10229000F08F3046254B98474FF0FF30F6E73B462E
:1022A00004F134020937597802F8011F13F8011FAD
:1022B00000293FF470AFBB42F5D16CE7194B1B68A6
:1022C000002BBBD10A4B1B68DB6A9D42B6D3084B7F
:1022D0001C60B3E70120D9E70120D7E721174000B0
:1022E0004D3C400079144000C5144000D40C4020FF
:1022F000640C4020700C402079134000000D4020F9
:102300001C0D4020480D4020340D4020680C40201A
:102310006C0C4020E00C4020E80C4020951340005D
:1023200011154000300D402004ED00E05117400031
:102330008F134000EC0C402010B584B000230393B1
:10234000029301930093822216491748174CA04725
:1023500001280BD020BB4FF0800372B683F31188A5
:10236000BFF36F8FBFF34F8F62B6FEE7104B9847F6
:102370000128EFD14FF0800372B683F31188BFF3C9
:102380006F8FBFF34F8F62B64FF0FF32094B1A6069
:102390000122094B1A600022084B1A60084B98472B
:1023A00004B010BD808D4000DD26400005214000B6
:1023B0001D2D4000140D4020300D40205C0D4020AC
:1023C000F9154000024A136801331360704700BFDB
:1023D000DC0C4020014B1868704700BF5C0D4020AA
:1023E0002DE9F047424B1B68002B78D1414B1A680E
:1023F00001321A601E68D6B93F4B1B681B6853B187
:102400004FF0800372B683F31188BFF36F8FBFF371
:102410004F8F62B6FEE7384A1168384B1868106073
:102420001960374A136801331360364B9847364BAF
:102430001B689E4218D20024344B1B68DB6A03EBF6
:102440008303334A52F82330022B28BF0124314B37
:102450001B680BB9304B9847304B1B68002B0CBFE7
:1024600020460120BDE8F0870024DFF88C90DFF8DB
:10247000B8802B4F1FE04FF0FF32234B1A60DBE791
:10248000214A1360D8E705F11800C047E86A3A68A6
:102490000123834013433B6000EB800051461C4BFB
:1024A00003EB80001F4B9847184B1B68EA6ADB6AF6
:1024B0009A4228BF0124D9F800301B68002BDAD0DB
:1024C000D9F80030DB68DD686B689E42D8D305F12F
:1024D000040A5046C047AB6A002BD4D1D6E70D4A58
:1024E0001368013313600C4B98470024B4E700BF16
:1024F000DC0C40205C0D4020680C40206C0C40201F
:10250000180D402081204000140D4020640C402014
:10251000700C4020D80C402021334000600D40203A
:10252000E80C402095134000E11340002DE9F843EA
:10253000384B1B6853B94FF0800372B683F3118890
:10254000BFF36F8FBFF34F8F62B6FEE7324B9847F2
:10255000304B1A68013A1A601B68002B55D12F4B7B
:102560001B68002B32D100242D4B98472046BDE834
:10257000F883FB68DC6804F11800B04704F1040834
:102580004046B047E06A2A680123834013432B602A
:1025900000EB8000414609EB8000224B9847224B1C
:1025A0001B68E26ADB6A9A420CD23B68002BE0D1DE
:1025B0001E4B1B68DBB11D4B1B68C3B11C4E1D4D70
:1025C0001A4C0EE001221B4B1A60EEE71A4F1B4E0D
:1025D0001B4DDFF87490E8E72368013B2360236814
:1025E0002BB1B0470028F7D001232B60F4E7114B43
:1025F0001B68012B0BD14FF08052124B1A60BFF3B6
:102600004F8FBFF36F8F0124AEE70024ACE70024A7
:10261000AAE700BFDC0C4020C5144000D40C4020C9
:102620001115400095134000640C4020D80C402048
:10263000E1234000600D40201C0D4020E1134000CC
:10264000E80C402004ED00E0700C402010B500289C
:1026500029D00446184B1B6853B14FF0800372B663
:1026600083F31188BFF36F8FBFF34F8F62B6FEE71E
:10267000124B9847124B1B681C44124B18680430CD
:10268000114B984748B90F4B1A6810490B68D06A2C
:102690000122824023EA02030B6020460C4B98473C
:1026A0000C4B984738B94FF080520B4B1A60BFF370
:1026B0004F8FBFF36F8F10BDDC0C4020C52340004F
:1026C0005C0D4020640C4020E1134000E80C4020E9
:1026D000AD2040002D25400004ED00E080B5DFF87E
:1026E0008880194EDFF884902AE0184B1B68012B74
:1026F0001ED82B68002BF8D0C0473468B847002C90
:10270000F7D0134B9847F368DC68201D114B9847AE
:10271000114A1368013B13602B68013B2B600F4B80
:102720009847206BDFF848A0D0472046D047E0E725
:102730004FF08053C9F80030BFF34F8FBFF36F8F56
:10274000074D084FD5E700BF480D4020700C4020D2
:10275000C5144000E1134000D40C40201115400086
:10276000E40C40202D254000C523400004ED00E08E
:10277000511740002D4B1B68002B2CD110B50022A7
:102780002B4B1A602B4B1B681B6B1A68B2F1A53FD1
:1027900003D15A68B2F1A53F21D0264B18681968B9
:1027A0003431254B9847254B1B68B3FA83F3DBB2D2
:1027B000C3F11F0303EB8301214A52F82120BAB968
:1027C0004FF0800372B683F31188BFF36F8FBFF3AE
:1027D0004F8F62B6FEE70122154B1A6070479A6868
:1027E000B2F1A53FD9D1DB68B3F1A53FD5D1DAE786
:1027F000134A9900C81802EB80004468646844607A
:10280000194402460832944209D003EB83030C4A70
:1028100002EB83035B68DA68064B1A6010BD6068E0
:10282000074A02EB81025060EFE700BFDC0C40205A
:10283000600D4020640C402009334000E80C40202B
:10284000700C402038B5E0B10C46174D296818319E
:10285000164B984728680430154B984740B92A68AA
:1028600014490B68D06A0122824023EA02030B60FC
:10287000B4F1FF3F10D0104B186820440F4B98471D
:1028800038BD4FF0800372B683F31188BFF36F8FAA
:10289000BFF34F8F62B6FEE7034B19680431084857
:1028A000084B984738BD00BF640C4020AD13400072
:1028B000E1134000E80C40205C0D4020AD204000BA
:1028C000340D402095134000E8B170B515460C4614
:1028D000164E31681831164B984730680430154B46
:1028E000984740B9326814490B68D06A0122824087
:1028F00023EA02030B60012D10D0104B186820440E
:102900000F4B984770BD4FF0800372B683F3118868
:10291000BFF36F8FBFF34F8F62B6FEE7034B1968AB
:1029200004310848024B984770BD00BF640C40203A
:1029300095134000E1134000E80C40205C0D40205E
:10294000AD204000340D402038B5C368DC6824B3A6
:1029500004F1180528461A4B98471A4B1B683BBBD5
:10296000251D2846164B9847E06A174A116801232F
:1029700083400B43136000EB80002946134B03EBAD
:102980008000134B9847134B1B68E26ADB6A9A423C
:1029900013D90120104B186038BD4FF0800372B678
:1029A00083F31188BFF36F8FBFF34F8F62B6FEE7DB
:1029B00029460A48064B9847E5E7002038BD00BF86
:1029C000E1134000DC0C4020E80C4020700C40205B
:1029D00095134000640C4020600D40201C0D4020E9
:1029E00030B1094A12680260084A126842607047B2
:1029F0004FF0800372B683F31188BFF36F8FBFF37C
:102A00004F8F62B6FEE700BF180D40205C0D4020DE
:102A100038B5C0B1044609B30D461D4B98471D4B50
:102A20001A682B68B3F1FF3F2ED01B490968206854
:102A3000884202D061688A4228D26168501A834273
:102A400017D801241CE04FF0800372B683F311887D
:102A5000BFF36F8FBFF34F8F62B6FEE74FF0800377
:102A600072B683F31188BFF36F8FBFF34F8F62B6D7
:102A7000FEE79B1A0B442B602046084B9847002426
:102A8000074B9847204638BD0024F9E70124F7E7B3
:102A9000C51440005C0D4020180D4020E129400085
:102AA000111540000122014B1A607047600D402053
:102AB000054B1B6833B1054B1B68002B0CBF022074
:102AC0000020704701207047300D4020DC0C402072
:102AD000002844D038B50446C26A21490968C96A49
:102AE0008A4214D28169002905DB1D490968C96A37
:102AF000C1F10501816102EB82021A4901EB8202F8
:102B00006169914204D0164A1268D26AE26238BD05
:102B1000251D2846144B984770B9E36A03EB8301DF
:102B2000104A52F821203AB910480268012101FAEE
:102B300003F322EA03030360094B1B68D86AE062CF
:102B40000A4A1168012383400B43136000EB8000A5
:102B50002946044B03EB8000054B984738BD70476E
:102B6000640C4020700C4020E1134000E80C402031
:102B70009513400000284DD038B50446274A126806
:102B800090420AD04FF0800372B683F31188BFF3EE
:102B90006F8FBFF34F8F62B6FEE7C26C52B94FF032
:102BA000800372B683F31188BFF36F8FBFF34F8F2B
:102BB00062B6FEE7013AC264C06AA16C88422BD0BB
:102BC00052BB251D2846164B984768B9E16A01EBB0
:102BD0008102144B53F8223033B9134803680122A1
:102BE0008A4023EA02030360A06CE062C0F105039F
:102BF000A3610D4A1168012404FA00F30B4313602A
:102C000000EB80002946074B03EB8000074B9847F9
:102C1000204638BD00207047002038BD640C40209D
:102C2000E1134000700C4020E80C40209513400058
:102C3000054B1B6823B1044B1A68D36C0133D36472
:102C4000014B1868704700BF640C402008B5416014
:102C5000006191420CD8D21A83699A4201D30120B3
:102C600008BD011D094B1868094B9847002008BD95
:102C70009A4203D2994201D3012008BD011D054BA0
:102C80001868034B9847002008BD00BF680D40201E
:102C9000AD134000640D402070B5154B9847154B9F
:102CA0001B6813B1144B984770BD144D2846144E41
:102CB000B047144C2046B047134B1D60134B1C60AB
:102CC000002210210520124B98470A4B186018B1BA
:102CD0001049114B9847E5E74FF0800372B683F334
:102CE0001188BFF36F8FBFF34F8F62B6FEE700BF4F
:102CF000C5144000980D4020111540006C0D402077
:102D000079134000800D4020640D4020680D402064
:102D1000E5194000888D4000F51F400010B584B0D3
:102D20000F4B98470F4B1B6873B10023039302931B
:102D30000193042200924FF482720B490B480C4C11
:102D4000A04708B104B010BD4FF0800372B683F302
:102D50001188BFF36F8FBFF34F8F62B6FEE700BFDE
:102D6000992C4000980D4020908D40009D2E4000F1
:102D700005214000D8B130B585B015460446154A46
:102D8000106820B31A46009101950294052919DCB8
:102D9000114B984702284FF000030CBF089A1A46BF
:102DA00069460C4800680D4CA04705B030BD4FF097
:102DB000800372B683F31188BFF36F8FBFF34F8F19
:102DC00062B6FEE700236946054CA047EDE7002008
:102DD000EBE700BF980D4020B12A4000611A400087
:102DE000451C40002DE9F04782B08046244B9847AF
:102DF0000746244B1B6898421BD30023C8F80030B9
:102E0000204B1F60384602B0BDE8F08700210091DA
:102E10000B46524620461C4CA04760B94FF0800339
:102E200072B683F31188BFF36F8FBFF34F8F62B613
:102E3000FEE7164D164E2B681A68C2B1DB68D3F850
:102E400000A0DC6804F104094846B047636A2046E4
:102E50009847E369012BEED1A36953449A45D5D233
:102E600063602461494628680A4B9847E3E70A4AA9
:102E700010680649086013600123C8F80030BFE7F6
:102E8000D5234000940D4020752D4000640D402056
:102E9000E1134000AD134000680D40202DE9F047DC
:102EA00088B0754E754FDFF8FC91DFF8FC81336810
:102EB0001A68002A00F0CE80DB681C68B84704A8B6
:102EC0006F4B98470546049B002B44D1A04212D279
:102ED0000022611B6B4B18686B4B98476B4B9847F4
:102EE00000283AD14FF08053C9F80030BFF34F8F1C
:102EF000BFF36F8F31E0654B98473368DB68D3F8D9
:102F00000CA00AF10400C047DAF81C30012B04D0F1
:102F1000DAF82430504698471FE0DAF818102346B4
:102F20002A46214450465A4DA8470128F0D1002195
:102F300000910B4622465046564CA0470028E7D148
:102F40004FF0800372B683F31188BFF36F8FBFF326
:102F50004F8F62B6FEE74D4B98474A4D4E4C06E008
:102F600007990698059B9847049B002B09DA0023D4
:102F70001A4604A92868A047002898D0049B002B73
:102F8000EEDBDDF818A0DAF8143013B10AF1040012
:102F9000C04703A83A4B9847049B092BE7D801A2E6
:102FA00052F823F0CD2F4000CD2F4000CD2F400010
:102FB0006F2F4000213040004D304000CD2F4000A9
:102FC000CD2F40006F2F400021304000059CDAF8E3
:102FD000181023460246214450462D4CA047012894
:102FE000BCD1DAF8243050469847DAF81C30012B6F
:102FF000B4D1DAF81820002100910B46059802445C
:103000005046244CA0470028A8D14FF0800372B648
:1030100083F31188BFF36F8FBFF34F8F62B6FEE764
:103020000599CAF8181031B10346024601445046CA
:10303000174CA04792E74FF0800372B683F31188D4
:10304000BFF36F8FBFF34F8F62B6FEE75046134B4F
:10305000984783E7B84704A8094B98470546049B5F
:10306000002B7FF478AF0E4B1B681A68B2FA82F21D
:10307000520900242DE700BF640D4020C523400005
:10308000E52D4000980D4020292040002D254000CE
:103090004D2C4000752D4000251E4000511740006A
:1030A000680D402004ED00E0E113400008B5002168
:1030B000024B1868024B984708BD00BF200E402005
:1030C000451D400008B54FF4FA75024C2846A0474C
:1030D000FCE700BF4D26400008B5094E4FF4FA74D6
:1030E000084D02E02046084B984700232246194627
:1030F0003068A8470028F5D00448054B9847F1E709
:10310000200E4020251E40004D264000508E4000DD
:10311000C53D400080B582B00C4B98474FF0040885
:103120000A270B4EFF2500950123424639463846B3
:10313000B0479620074CA0470095002342463946E9
:103140003846B0479620A047ECE700BF3105400065
:10315000C50340004D264000F0B583B005460C463F
:10316000002301932A4B984213D02A4B984218D03F
:10317000294B98421DD0294B9D4222D0284B9D427D
:1031800027D0284B9D422ED0274B9D4235D003B0EF
:10319000F0BD1F46254E21463846B0470028FAD1DB
:1031A000E9E71F46214E21463846B0470028FAD1AC
:1031B000E4E71F461D4E21463846B0470028FAD1A5
:1031C000DFE71F46194E21463846B0470028FAD19E
:1031D000DAE71E46164D01A93046A8470028FAD165
:1031E000019B2370D3E71E46114D01A93046A84725
:1031F0000028FAD1019B2370C9E71E460C4D01A996
:103200003046A8470028FAD1019B2370BFE700BFD2
:1032100000080E40000A0E40001A0E40001C0E402E
:10322000004002400080024000C00240A30F400066
:10323000AF10400070B50C462A4B984213D02A4B71
:10324000984219D0294B98421FD0294B984225D03B
:10325000284B98422BD0284B984231D0274B98428C
:1032600037D0002070BD1E46254D21463046A84768
:103270000028FAD1012070BD1E46214D214630465E
:10328000A8470028FAD1012070BD1E461C4D2146DA
:103290003046A8470028FAD1012070BD1E46184DBF
:1032A00021463046A8470028FAD1012070BD1E46AD
:1032B000144D21463046A8470028FAD1012070BDA0
:1032C0001E46104D21463046A8470028FAD101205D
:1032D00070BD1E460B4D21463046A8470028FAD146
:1032E000012070BD00080E40000A0E40001A0E407A
:1032F000001C0E40004002400080024000C002401E
:10330000910F40009910400008B50A460146024856
:10331000024B9847FEE700BF648E4000013D40002D
:1033200070474FF0800372B683F31188BFF36F8F3D
:10333000BFF34F8F62B6FEE730B583B00A20154B5E
:103340009847154C09234FF400624FF02051204656
:10335000124DA8473C224FF400612046104B98477D
:10336000104B009350234FF400620A2120460E4D6B
:10337000A8474FF4006120460C4B984720460C4B61
:1033800098470C4B4FF480621A60802283F80A231E
:1033900003B030BD3D0F4000000E0E40290C400030
:1033A0001D0B4000AD304000490D4000EB0C4000CB
:1033B000EF0C400000E100E000B58BB003220021DB
:1033C0000120404B9847404B1860002871D00022E4
:1033D000042164203B4B98473C4B186000286CD07C
:1033E0003B4B98473B4B98473B4B98473B4D3C4B9F
:1033F0001D603C4A3C4B1A603C4A3D4B1A604FF4FE
:10340000E1330493C02305934FF400630693002433
:10341000079408940E20374B9847374A04A928464A
:10342000364B98472846364B98472846354B9847A1
:10343000354E336821469868344DA8473368214695
:103440005868A847336821469868A84703940294AF
:103450000194009423464FF4C0622D492D482E4C10
:10346000A047012802D02D482D4B984700230393F5
:103470000293019300934FF4C0622A492A48264CD4
:10348000A047012802D02948254B984700230393E1
:103490000293019300934FF4C062254925481E4CC6
:1034A000A047012802D024481D4B9847234B98473A
:1034B000FEE723481A4B984789E72248184B98475C
:1034C0008EE700BFE5194000200E40201C0E402072
:1034D00089084000850940003933400000800240DF
:1034E000D80D402035324000D40D402059314000E5
:1034F000D00D40203D0F400080D1F0083910400031
:103500008D1040009310400014004020F93D400011
:10351000DC8D40001531400005214000E48D400065
:10352000C53D4000048E4000D93040000C8E400064
:103530002C8E4000C5304000348E400039234000BE
:10354000988D4000B88D400070B50F4E0F4D761B22
:10355000B61018BF002405D0013455F8043B984735
:10356000A642F9D10A4E0B4D761B05F0CDFDB610E3
:1035700018BF002406D0013455F8043B9847A642F2
:10358000F9D170BD70BD00BF14914000149140008E
:103590001C91400014914000024B0146186800F055
:1035A0000BB800BF14004020024B0146186803F01E
:1035B0002FBA00BF140040202DE9F04F01F10B0697
:1035C000162E83B0054640F29E8036F0070600F1C5
:1035D000BD80B14200F2BA8000F086FBB6F5FC7FF8
:1035E000C0F09382730A00F0B880042B00F2798156
:1035F000B30903F1390003F1380EC300BF4F3B4458
:10360000A3F108015C68A14206D10CE0002A80F217
:10361000AA80E468A14206D0636823F003039A1BE2
:103620000F2AF3DD70463C69DFF8E4E2744500F0F0
:10363000AB81636823F003039A1B0F2A00F3908188
:10364000002AC7F814E0C7F810E080F29D80B3F5B7
:10365000007F80F06181DB0803F1010C99107A682A
:1036600057F83C80C4F8088001238B4007EBCC015D
:1036700013430839E1607B6047F83C40C8F80C40D0
:103680008210012494409C4200F28B801C4206D19F
:1036900020F0030064001C4200F10400FAD007EBA4
:1036A000C009CC468046DCF80C309C4507D16DE162
:1036B000002A80F27B81DB689C4500F067815968B5
:1036C00021F003018A1B0F2AF2DDD3F80CC0D3F8D6
:1036D000088000939C19284646F0010642F0010537
:1036E0005E60C8F80CC0CCF808807C613C61C4F80E
:1036F0000CE0C4F808E065605A5000F0FBFA009B4B
:1037000003F108041EE0102920D800F0EDFA10267D
:1037100018230220794F3B44A3F108025C689442CD
:1037200000F03D816368E168A66823F00303234449
:1037300028465A68F16042F001028E605A6000F03B
:10374000D9FA0834204603B0BDE8F08F00240C23DA
:1037500020462B6003B0BDE8F08F40204FF400738B
:103760004FF03F0E4AE72344E1685A68A66842F0EA
:103770000102F16028468E605A6000F0BBFA0834FE
:10378000204603B0BDE8F08F234428465A6842F033
:1037900001025A6000F0AEFA0834204603B0BDE8DA
:1037A000F08FBC68636823F00308B04504D3A8EB2E
:1037B00006030F2B00F38580DFF85891504BD9F8A2
:1037C00000201B680132334404EB080A00F05581E5
:1037D00003F580530F3323F47F6B2BF00F0B594607
:1037E000284600F0F7FA411C024600F0FC808245B2
:1037F00000F2F780434B19685944196000F04D817D
:10380000D9F8000001301BBFA2EB0A0A5144C9F8E5
:103810000020196012F0070100F01581C1F10800C5
:10382000C1F580510244083102EB0B09C9F30B09C1
:10383000A1EB0909494628460193009200F0CAFA13
:10384000431C9DE80C0000F04381801A484440F07E
:1038500001001968BA604944BC425060196017D031
:10386000B8F10F0F40F2FB806068A8F10C0222F063
:10387000070204EB020E00F001004FF0050C1043AC
:103880000F2A6060CEF804C0CEF808C000F217819D
:103890001D4BBC681A68914288BF19601B4B1A689F
:1038A0009142626888BF196022F003029642A2EB3F
:1038B000060301D80F2B04DC284600F01BFA002475
:1038C00040E7A21943F0010346F00106666028466E
:1038D000BA60536000F00EFA0834204603B0BDE829
:1038E000F08F142B71D9542B00F2A380330B03F10A
:1038F0006F0003F16E0EC30080E600BF400440205D
:10390000CC0D40209C0D4020C40D4020C80D40200F
:1039100048044020480840205A0A042A5BD9142A47
:1039200000F2AE8002F15C01C9005B3207EB010CD2
:103930007958ACF1080C8C4500F088804A6822F078
:103940000302934273D289688C45F7D1DCF80C20CE
:103950007B68E260C4F808C09460CCF80C408FE645
:10396000A11946F0010C42F00106C4F804C0284633
:1039700079613961C1F80CE0C1F808E04E60E250AD
:1039800000F0B8F90834DDE67B6879E608F1010853
:1039900018F0030F0CF1080C7FF485AE2DE0DC6805
:1039A000A34208BF02303FF43EAEBBE619441C46BA
:1039B0004A68DB6854F8086F42F001024A60284602
:1039C000F3609E6000F096F9BCE603F15C0003F141
:1039D0005B0EC30012E69A0902F13901C9003832C0
:1039E000A4E7BC4254D0BC68626822F003025DE7E1
:1039F00059F80839994540F0868010F0030F00F11E
:103A0000FF30F5D17B6823EA04037B6064009C42AD
:103A10003FF6C7AE002C3FF4C4AE1C4240467FF4D4
:103A20003EAE64001C4200F10400FAD037E68C463A
:103A30008CE7B3F5AA7F15D8F30B03F1780003F1F7
:103A4000770EC300DAE54FF48051EDE67B68921003
:103A5000012101FA02F213437B60624679E70123F8
:103A6000536029E740F25452934222D8B30C03F139
:103A70007D0003F17C0EC300C0E503F1100BAEE640
:103A8000542A29D81A0B02F16F01C9006E324DE792
:103A9000204B196859441960B2E6CAF30B0000289C
:103AA0007FF4AEAE08EB0B03BA6843F0010353603A
:103AB000EEE67F204FF47E734FF07E0E9EE504F11C
:103AC00008012846009302F0A3FF009B1968DFE677
:103AD00001204FF00009BCE6B2F5AA7F05D8DA0B49
:103AE00002F17801C900773220E740F254518A424E
:103AF00005D89A0C02F17D01C9007C3216E74FF41B
:103B00007E717E2212E77B6880E7F00806F10803E9
:103B100000E600BF9C0D4020844641EA000313F0FC
:103B200003036DD1403A41D351F8043B40F8043BC4
:103B300051F8043B40F8043B51F8043B40F8043B87
:103B400051F8043B40F8043B51F8043B40F8043B77
:103B500051F8043B40F8043B51F8043B40F8043B67
:103B600051F8043B40F8043B51F8043B40F8043B57
:103B700051F8043B40F8043B51F8043B40F8043B47
:103B800051F8043B40F8043B51F8043B40F8043B37
:103B900051F8043B40F8043B51F8043B40F8043B27
:103BA00051F8043B40F8043B403ABDD2303211D3C7
:103BB00051F8043B40F8043B51F8043B40F8043B07
:103BC00051F8043B40F8043B51F8043B40F8043BF7
:103BD000103AEDD20C3205D351F8043B40F8043BC7
:103BE000043AF9D2043208D0D2071CBF11F8013BC5
:103BF00000F8013B01D30B8803806046704700BF8B
:103C0000082A13D38B078DD010F003038AD0C3F199
:103C10000403D21ADB071CBF11F8013B00F8013B7B
:103C200080D331F8023B20F8023B7BE7043AD9D33A
:103C3000013A11F8013B00F8013BF9D20B7803700F
:103C40004B7843708B7883706046704770B48607FA
:103C500046D0541E002A41D0CAB2034602E014F1F5
:103C6000FF343BD303F8012B9D07F8D1032C2ED949
:103C7000CDB245EA05250F2C45EA054519D903F1D2
:103C800010022646103E0F2E42F8105C42F80C5CE3
:103C900042F8085C42F8045C02F11002F2D8A4F188
:103CA000100222F00F0204F00F041032032C134410
:103CB0000DD91E462246043A032A46F8045BFAD878
:103CC000221F22F003020432134404F003042CB137
:103CD000C9B21C4403F8011B9C42FBD170BC704765
:103CE00014460346C2E700BF014803F02BB900BFEA
:103CF000340E4020014803F027B900BF340E4020A5
:103D00000FB400B5074983B004AB086853F8042B1F
:103D10008168019300F0C2F903B05DF804EB04B0D0
:103D2000704700BF14004020F0B5054689B0084632
:103D30000C4600F045F9AB6B214F04940126441C5E
:103D400004A9022203940590AC6806970796019196
:103D5000029253B3636E13F0010FB4F90C309AB2B0
:103D600001D1900525D5910406D4626E43F4005329
:103D700022F40052A3816266284601AA214602F07D
:103D80002DFF636E00280CBF0A254FF0FF35DA07C0
:103D900002D4A3899B0502D5284609B0F0BDA06DC9
:103DA00003F0D2F8284609B0F0BD284602F08EFD97
:103DB000D0E7A06D03F0C6F8B4F90C309AB2D2E7A0
:103DC000808E4000024B01461868FFF7ADBF00BF70
:103DD0001400402038B5074C0023054608462360F0
:103DE000FDF7A2FA431C00D038BD2368002BFBD09E
:103DF0002B6038BD480E402000290CBF0222002253
:103E00004FF4806300F000B82DE9F043614C256861
:103E100083B004460F4690461E4615B1AB6B002B8F
:103E200064D0B8F1020F06D0B8F1010F00F29F8004
:103E3000002EC0F29C80636ED80734D521462846F8
:103E400002F0ECFC216B41B104F14003994202D035
:103E5000284602F0DDFD00232363B4F90C30002274
:103E6000A26162601A063AD423F44A6323F0030382
:103E7000B8F1020FA3811DD001AB6A462146284646
:103E800003F064F8A3891843A081002E32D1009E6C
:103E90003046FFF781FB074600286BD0A38943F02B
:103EA0008003A38128E0A3899905C7D4A06D03F0FE
:103EB00049F8C3E70025616E002604F1430243F090
:103EC00002030120A660CE07A38122602261606107
:103ED00001D498053ED5284603B0BDE8F08321699A
:103EE000284602F095FDB4F90C30BDE7284602F0F3
:103EF000EDFC96E7002FCBD0AB6B002B33D0009BB3
:103F0000B4F90C2027609E421CBF42F40062A281DB
:103F1000B8F1010F04BF42F00102A28192B212F087
:103F20000803276166610ED0D1071AD5656E764207
:103F3000002315F00105A661A36009D000252846DD
:103F400003B0BDE8F083A360656E15F00105F5D1FF
:103F50009305C0D4A06D02F0F7FF284603B0BDE87A
:103F6000F083A660F0E7284602F0B0FCC7E74FF008
:103F7000FF35B0E7DDF80090B14504D04846FFF7C3
:103F80000BFB074620B9B4F90C304FF0FF3592E730
:103F90004E4683E7140040200000000000000000AF
:103FA0000000000000000000000000000000000011
:103FB0000000000000000000000000000000000001
:103FC00090F800F06DE9024520F007016FF0000C59
:103FD00010F0070491F820F040F049804FF0000401
:103FE0006FF00700D1E9002391F840F000F10800DC
:103FF00082FA4CF2A4FA8CF283FA4CF3A2FA8CF314
:104000004BBBD1E9022382FA4CF200F10800A4FA7A
:104010008CF283FA4CF3A2FA8CF3E3B9D1E90423CE
:1040200082FA4CF200F10800A4FA8CF283FA4CF305
:10403000A2FA8CF37BB9D1E9062301F1200182FABF
:104040004CF200F10800A4FA8CF283FA4CF3A2FAC5
:104050008CF3002BC6D0002A04BF04301A4612BAD3
:10406000B2FA82F2FDE8024500EBD2007047D1E9D6
:10407000002304F00305C4F100004FEAC50514F065
:10408000040F91F840F00CFA05F562EA05021CBF36
:1040900063EA050362464FF00004A9E72DE9F04FFB
:1040A000C1B01D468A4691460446089002F038FF8A
:1040B000036815931846FFF783FF0E9514901CB103
:1040C000A36B002B00F05F82DAF86430BAF90C20A1
:1040D00013F0010F93B202D1990540F175829F044C
:1040E0000AD4DAF8641042F4005321F40051AAF81B
:1040F0000C30CAF864109BB21E0740F12382DAF834
:104100001020002A00F01E8203F01A020A2A00F092
:104110003E82002318461193139312932593249300
:10412000189319930B9330AB2393984616901790DE
:10413000CDF828A099F800304C46EBB1252B02D1E0
:104140001AE0252B03D014F8013F002BF9D1A4EB82
:1041500009058DB1249B259AC8F8009001332A44A3
:10416000072BC8F804502592249300F3018208F12C
:1041700008080B9B2B440B932378002B00F0F08353
:1041800000231A468DF86F3019460C939B466678CB
:104190004FF0FF3304F10109099309F10109A6F178
:1041A0002003582B00F2BF83DFE813F0E002BD03C9
:1041B000BD034F03BD03BD03BD03BD03BD03BD036D
:1041C00054030803BD031A02E802BD0303033A03C4
:1041D0003A033A033A033A033A033A033A033A03F7
:1041E000BD03BD03BD03BD03BD03BD03BD03BD03CF
:1041F000BD03BD0349036203BD036203BD03BD03E9
:10420000BD03BD03A203BD03BD036F00BD03BD031A
:10421000BD03BD03BD035900BD03BD031E03BD03A4
:10422000BD03BD03BD03BD03BD03BD03BD03BD038E
:10423000BD0324037302620362036203B7027302C5
:10424000BD03BD03BC02BD03C90271000D034702DB
:10425000BD035202BD035B00BD03BD031F024BF053
:10426000100B1BF0200F40F053830E9A1BF0100F21
:10427000134640F0B4851BF0400F00F0B085148861
:104280000432002501230E9214E04BF0100B1BF0BA
:10429000200340F032831BF0100240F089851BF0B0
:1042A000400300F085850E9913460A4604320C88B7
:1042B0000E9200254FF0000A8DF86FA009994A1C54
:1042C00000F00B822BF08002069254EA050240F0C7
:1042D0000A82002940F06F84002B40F02D851BF0EE
:1042E00001030D9300F0688640AF302307F8413D8D
:1042F000099B0D9A9342B8BF13460793002310936E
:10430000BAF1000F02D0079B01330793069B13F00D
:1043100002030F9302D0079B02330793069B13F00F
:10432000840540F01B830C9B079AA3EB020BBBF1A7
:10433000000F40F31383BBF1100F2599249A28DD59
:1043400043461024A846DDF820A00A9D06E0ABF104
:10435000100BBBF1100F03F1080318DD0132B9484F
:1043600024921031072A259183E81100EFDD23AA5A
:104370002946504603F03CFC002840F06A83ABF12C
:10438000100BBBF1100F2599249A30ABE6DC4546A3
:1043900098460132AB4B24920BEB0104072A25947B
:1043A00088E8080800F3CD849DF86FA008F108089C
:1043B000BAF1000F0ED0249B013301340DF16F01CF
:1043C0000122072B2594249388E8060000F30A8431
:1043D00008F108080F9B6BB1249B013302341CA920
:1043E0000222072B2594249388E8060000F3068414
:1043F00008F10808802D00F02E83099B0D9AA3EB8D
:10440000020ABAF1000F3BDDBAF1100F249B8E4D6A
:104410002BDD42462146B0464FF0100B2E46089C3D
:104420000A9D06E0AAF1100ABAF1100F02F1080283
:1044300017DD01331031072B2591249382E84008C2
:10444000F0DD23AA2946204603F0D2FB002840F0E5
:104450000083AAF1100ABAF1100F2599249B30AA03
:10446000E7DC35460C464646904601335444072B5C
:104470002594249388E8200400F3A98308F1080810
:10448000069BDB0500F18582249B0D99C8F800701E
:1044900001330C44072B2594C8F80410249300F32F
:1044A000758308F10808069B59073BD50C9B079AB2
:1044B0009D1A002D36DD102D249B21DD1026089F2E
:1044C000DDF828A004E0103D102D08F1080817DDE4
:1044D00001335C4A24931034072B259488E8440068
:1044E000F1DD23AA5146384603F082FB002840F054
:1044F0003F82103D102D259C249B0DF1C008E7DC68
:104500000133504A24932C44072B259488E8240037
:1045100008DD23AA0A99089803F06AFB002840F0F6
:104520004783259C0B9B0C9A07998A42ACBF9B182A
:104530005B180B93002C40F03383002324930DF180
:10454000C008F7E55146089801F096F8002838D0E1
:10455000DAF86430DD0704D4BAF80C309C0540F179
:10456000CA854FF0FF330B930B9841B0BDE8F08F35
:1045700023AA0A99089803F03BFB002840F018830F
:104580000DF1C008F5E5089802F0A0F99CE5BAF92C
:104590000E20002AFFF6BDADDAF86420D00705D45E
:1045A000990503D4DAF8580002F0CEFC2B464A46AF
:1045B0005146089801F01EF80B900B9841B0BDE8E9
:1045C000F08FBAF80C309FE5DAF8580002F0BAFC28
:1045D000BAF90C2093B282E50C980E9340420C90ED
:1045E0004BF0040B99F80060D7E5002A40F0DF8714
:1045F000164B18931BF0200F40F0B9840E9A1BF055
:10460000100F134640F0DC831BF0400F00F0D883FE
:10461000043314880E9300251BF0010F00F0228351
:1046200054EA050300F01E8330238DF870308DF8B6
:1046300071604BF0020B02233CE64BF0200B99F823
:104640000060AAE5C88E4000D88E4000A88E4000C9
:104650000E9A176800248DF86F40151D002F00F08A
:104660004E86099A531C00F0CC852146384602F04C
:10467000E7FC002800F09786C31B0D9309940E9564
:10468000CDF818B023EAE373079310949DF86FA058
:1046900036E6002A40F096871BF0200F40F05A843F
:1046A0001BF0100F40F0A2831BF0400F00F09E8320
:1046B0000E99B1F900400431E51722462B460E91C0
:1046C000002A73F10003C0F2878409999DF86FA056
:1046D0004A1C4FF001037FF4F5AD54EA050200F0E7
:1046E0006C82CDF818B0012B00F00883022B40F04B
:1046F0009582189830AF230904F00F0143EA05733F
:104700002A091C461546435C07F8013D54EA050397
:10471000F1D130ABDB1B0D93EAE54BF0400B99F880
:1047200000603AE599F800606C2E03BF99F80160CB
:104730004BF0200B09F101094BF0100B2DE5002A7D
:1047400040F04C871BF0200F40F03F851BF0100F0E
:1047500040F0FC801BF0400F00F0F8800E9A1368C8
:1047600004320E92BDF82C201A80E3E499F8006020
:1047700000297FF412AD012220210EE599F8006096
:104780002A2E09F1010000F0F186A6F13003092B71
:10479000814698BF002000F23D8619F8016B00EBBE
:1047A000800003EB4000A6F13003092BF5D90990F6
:1047B000F5E44BF0800B99F80060EEE499F80060A6
:1047C00001222B21E9E40E9AAE4B14681893782647
:1047D000302304328DF870304BF0020B0E9200251E
:1047E0008DF87160022365E5002A40F0E486A64B4F
:1047F0001893FFE60E99CDF818B00A688DF8982046
:1048000000230A469A468DF86F300432012307933D
:10481000CDF824A0CDF840A00E920D9326AF75E5FB
:10482000A6F13003002019F8016B00EB800003EBC8
:104830004000A6F13003092BF5D90C90AFE4002A13
:1048400040F0C8864BF0100B26E74BF0010B99F8AF
:104850000060A2E40E9C23680C93184600282346AF
:1048600003F10403FFF6B8AE0E9399F8006094E4E8
:10487000002A40F0B7860E9D073525F0070303F1A7
:1048800008020E921A6813925B681293129B139D92
:1048900023F00044284621464FF0FF327B4B04F0C2
:1048A000A9F8002840F0A283284621464FF0FF32A5
:1048B000764B04F081F8002840F09883169A1398FC
:1048C000179B129904F06EF8002840F035849DF88B
:1048D0006FA06F4F6F4B032200212BF080000792D7
:1048E00009910690472ED8BF1F460D92109107E5FB
:1048F0004BF0080B99F800604FE40E9D073525F04A
:10490000070303F10802D3E900450E920023D1E426
:104910000E9D073525F0070303F10802D3E9004592
:104920000E920123C6E4002A40F05086C6B100234F
:1049300001229A4607928DF89860CDF818B08DF84C
:104940006F30099310930D9226AFDFE40E9A13682F
:1049500004320E920B9A1A60FFF7ECBB259C27E5F8
:10496000259BDDF828A0002B40F09485002324939C
:10497000DAF8643013F0010FBAF80C3002D19A055E
:1049800040F149825B063FF5ECAD0B9841B0BDE8C4
:10499000F08F652E40F3B280169A1398179B1299E8
:1049A00003F0F6FF002800F06081249B3A4AC8F823
:1049B0000020013301340122072B25942493C8F8E9
:1049C000042000F3BF8308F108081D9B119A259C61
:1049D000934203DB069BDF077FF565AD249B1499AB
:1049E000159AC8F8002001330C44072BC8F80410AE
:1049F0002594249300F3F88308F10808119B5E1EA8
:104A0000002E7FF750AD102E249B244D40F3DD8106
:104A10001027DDF820A0DDF828B005E008F108082F
:104A2000103E102E40F3D18101331034072B259412
:104A3000249388E8A000F1DD23AA5946504603F0EC
:104A4000D7F8002840F0CD83259C249B0DF1C008A9
:104A5000E6E7AA468CE70C9B079AA3EB020ABAF199
:104A6000000F7FF7CAACBAF1100F249B0B4D39DD54
:104A700042462146B0464FF0100B2E46089C0A9D38
:104A800015E000BFA88E4000948E4000FFFFEF7F2E
:104A9000888E4000848E4000C48E4000D88E400036
:104AA000AAF1100ABAF1100F02F1080216DD013363
:104AB0001031072B2591249382E84008F0DD23AACA
:104AC0002946204603F094F80028C2D1AAF1100A22
:104AD000BAF1100F2599249B30AAE8DC35460C4624
:104AE0004646904601335444072B2594249388E886
:104AF000200400F3648208F108087EE4119B249EE0
:104B0000012B40F3FD81013601340123072E25944A
:104B10002496C8F80070C8F8043000F30E8208F13B
:104B20000808149A159BC8F8003001361444072E63
:104B300025942496C8F8042000F32E8208F1080872
:104B4000179B169A1398129903F022FF119B0028C5
:104B500040F00681013B013601371C44072E2496A4
:104B60002594C8F80070C8F8043000F3D98108F122
:104B70000808199AC8F80420013614441FAB072E00
:104B800025942496C8F800307FF78BAC23AA0A99A5
:104B9000089803F02DF858B9259C0DF1C00882E45F
:104BA00023AA0A99089803F023F800283FF4C5AC1B
:104BB000DDF828A0DCE6DDF818B0012B00F021813B
:104BC000022B27D1CDF818B00024002591E523AAA7
:104BD0000A99089803F00CF80028E9D1259C0DF1FA
:104BE000C0084DE423AA0A99089803F001F80028A8
:104BF000DED1259C0DF1C008FFF7ECBB23AA0A9972
:104C0000089802F0F5FF0028D2D1259C0DF1C008CC
:104C1000FFF7F0BBCDF818B00024002530A900E064
:104C20003946E20842EA4572E80804F007030546FF
:104C30001446303354EA050201F8013C01F1FF3714
:104C4000EED1069AD2077FF564AD302B3FF461AD0B
:104C50003023023907F8013C30AB5B1A0D930F4645
:104C6000FFF746BB0223FFF725BB1D99002940F340
:104C70007482109B119A9342A8BF1346002B1E46C4
:104C80000DDD249BC8F8007001333444072B2594B4
:104C9000C8F80460249300F3248308F10808109BEB
:104CA000002EA8BF9B1B002B1E4640F3D080102E69
:104CB000249BC04D40F3B78022464FF0100ADDF828
:104CC00020B00A9C05E008F10808103E102E40F3C1
:104CD000A98001331032072B2592249388E8200401
:104CE000F1DD23AA2146584602F082FF002840F059
:104CF0002483259A249B0DF1C008E6E7002D08BF08
:104D00000A2C7CD330AF204629460A22002303F028
:104D1000AFFE303207F8012D2046294600230A2233
:104D200003F0A6FE04460D4654EA0503EBD130AB72
:104D3000DB1B0D93FFF7DCBA099B0D9330AFFFF738
:104D4000D7BA23AA0A99089802F052FF00287FF4E4
:104D50002FAF9DF86FA0259C0DF1C008FFF728BB71
:104D60005F1E002F7FF705AF102F924D40F30A8191
:104D70004FF0100ADDF820B005E008F10808103FF8
:104D8000102F40F3FF8001361034072E259424960F
:104D900088E82004F1DD23AA0A99584602F028FF8A
:104DA00000287FF405AF259C249E0DF1C008E6E79E
:104DB0000E990A4604320C680E920025FFF77ABA63
:104DC0001C6804330E93002526E401333444072B7A
:104DD0002594249388E860007FF763ABD6E604321D
:104DE0001C680E9201230025FFF764BA0E9A14681E
:104DF00013460433E5170E9322462B4660E4DDF894
:104E000018B0CDF818B040AF3034012307F8414D49
:104E10000D93FFF76DBADAF8580002F095F8BAF87A
:104E20000C30AFE5144601333444072B259424930A
:104E300088E8600040F36D8123AA0A99089802F07F
:104E4000D7FE00287FF4B4AE259C0DF1C0081D9B51
:104E5000119A934280F25881249A14981599C8F8AF
:104E6000001001320444072A2594C8F80400249253
:104E700000F3528108F10808119A1099D31A561AB2
:104E80009E42A8BF1E46002E0EDD249AC8F804607C
:104E900001320F443444072AC8F800702594249244
:104EA00000F33C8208F10808002EACBF9E1B1E4692
:104EB000002E7FF7F8AA102E249B3E4D85DD10278B
:104EC000DDF820A0DDF828B005E008F10808103E64
:104ED000102E7FF77AAF01331034072B25942493DB
:104EE00088E8A000F1DD23AA5946504602F080FE72
:104EF000002840F07681259C249B0DF1C008E6E750
:104F0000069BD8073FF5FFAD013601340123072E7C
:104F100025942496C8F80070C8F804307FF727AEAF
:104F200023AA0A99089802F063FE00287FF440AE95
:104F3000259C249E0DF1C0081BE623AA0A99089817
:104F400002F056FE00287FF433AE259C249E0DF11E
:104F5000C008E6E50E9D073525F00705D5E90023D5
:104F600005F108010E9114461D46FFF7A9BB0E9DE1
:104F7000073525F0070303F108020E92D3E9004537
:104F8000FFF74ABB01363C44072E2594249688E857
:104F9000A0007FF7ECADC3E723AA0A99089802F0B6
:104FA00027FE00287FF404AE259C249E0DF1C00846
:104FB000C6E500BFD88E400030AFFFF799B923AAED
:104FC0000A99089802F014FE00287FF4F1AD259CA0
:104FD0000DF1C008FFF711BA4FF02D0A644265EBDE
:104FE00045058DF86FA00123FFF768B9139C224691
:104FF0002046129C2346214603F0FCFC002840F08A
:105000008C82099B013326F020030D9300F09180E0
:10501000472B04D1099B002B08BF012309934BF4B4
:1050200080730693129BB3F1000A139B0793BBBFD7
:10503000534603F1004A00232D23662E0F9300F000
:105040007F81462E00F0D4810D9B079A452B0CBF23
:10505000099B099D21A81EA908BF5D1C049003910E
:105060001DA802210290534601950091089800F076
:105070000BFC672E074640F0AF811BF0010F00F0DC
:1050800013827C19169A0798179B514603F080FCEF
:10509000002840F03281219BA34206D230215A1CC5
:1050A00021921970219B9C42F9D8DB1B11930D9B17
:1050B000472B00F0B980652E40F376821D9B10933C
:1050C000662E00F06281119B109A1946914200F3FE
:1050D0004F811BF0010F40F0098222EAE27307932F
:1050E0000D9267260F9B002B40F0968009939DF848
:1050F0006FA0FFF705B9DAF8580001F025FF4FF06F
:10510000FF330B93FFF730BA069AD5077FF5B4AE9D
:10511000A2E608F108089AE623AA0A99089802F07C
:1051200067FD00287FF444AD1D9B259C0DF1C00850
:10513000A2E60623099372E74FF02D0A8DF86FA0BF
:10514000FFF7C7BB23AA0A99089802F051FD00286F
:105150007FF42EAD0DF1C00837E4249BB44AC8F8A3
:105160000020013301340122072B25942493C8F831
:10517000042000F3248108F1080829B9119B1BB908
:10518000069BDE077FF58FA9249B1498159AC8F813
:105190000020013302462244072B2592C8F8040060
:1051A000249300F3698108F108080029C0F23681D0
:1051B0001199C8F8007001338C18072B259424939B
:1051C000C8F804107FF76DA9E0E40E9A0B991368F4
:1051D000CD170846043229460E92C3E90001FEF7B6
:1051E000A9BFDA46FFF7C4BB23AA0A99089802F0C0
:1051F000FFFC00287FF4DCAC259C0DF1C008FFF714
:10520000FDBB38460994FEF7DBFE0E950D90CDF8F8
:1052100018B00346FFF736BA4FF02D0A00238DF879
:105220006FA00993FFF76FB81D9B10931A460333C5
:1052300004DB099B19469142BFF645AF023E109B25
:105240008DF87C60013B002B1D93BDBF109BC3F10B
:1052500001032D222B22092B8DF87D2040F33E8166
:105260000DF18B042046734D00E0104685FB0312C0
:10527000D917C1EBA20101EB8102A3EB420230324C
:10528000092900F8012C0B4600F1FF32EDDC303328
:105290000238D9B2844202F8011C40F290810DF12B
:1052A0007E00134601E013F8011B00F8011BA34226
:1052B000F9D101339B1A0DF17E0213441FAA9B1AE8
:1052C000119A1993012A13440D9340F345810D9BC4
:1052D000149A13440D9323EAE37307930023109366
:1052E00000E723AA0A99089802F082FC00287FF4BC
:1052F0005FAC259C0DF1C008D1E42346D5E6099B9F
:105300001097062B28BF06230997BA4607930E95D8
:10531000CDF818B00D93484FFEF7F2BF23AA0A99B3
:10532000089802F065FC00287FF442AC1D9B119A9E
:10533000259CD31A0DF1C008B6E5A246FFF718BBAD
:1053400021A81EA9099D049003911DA80321029084
:10535000079A019553460091089800F095FA074680
:1053600044193B78302B00F0CA801D9D2C4489E6FF
:10537000149A119B1344109A0D93002A40F3E48071
:1053800023EAE37307936726ACE6002B40F3FB8028
:10539000099A002A40F0CE801BF0010F40F0CA802D
:1053A00007930D939EE6099B07930D9309900E9525
:1053B000CDF818B010909DF86FA0FEF7A1BF23AAFA
:1053C0000A99089802F014FC00287FF4F1AB1D99AB
:1053D000259C0DF1C008D0E6472E7FF452AE1BF09D
:1053E000010F00F0DA80462E07EB0504B9D049E63C
:1053F00021A81EA9099C049003911DA803210290D5
:10540000079A019453460091089800F03DFA25460A
:105410000746E8E700230993FEF7C1BE4E4210316C
:10542000064D43DA1024DDF820A0DDF828B00CE0AA
:10543000C48E400067666666BC8E4000D88E400011
:1054400008F10808103E102E30DD01331032072B12
:1054500025922493C8F80050C8F80440F0DD23AA30
:105460005946504602F0C4FB00287FF4BAAE259A94
:10547000249B0DF1C008E5E723AA0A99089802F0D9
:10548000B7FB00287FF494AB1D99259A249B0DF15E
:10549000C0088AE6089823AA514602F0A9FB002812
:1054A0003FF464AAFFF764BA219BFEE5013332445E
:1054B000072B88E860002592249308F108087FF7FD
:1054C00077AE23AA0A99089802F092FB00287FF48D
:1054D0006FAB259A249B0DF1C00869E6303330226A
:1054E0008DF87F308DF87E2020ABE7E6109B149A74
:1054F00013440D9323EAE37307936726F2E5169AA4
:105500000798179B514603F043FA00287FF42DAF0C
:10551000C5F101051D952C44B4E5129B334F002BBA
:10552000B6BF4FF02D0A9DF86FA08DF86FA0304BDD
:10553000FFF7D1B9109B149A1344099A1A4422EA2E
:10554000E2730D920793CDE5109B0D9AC3F1010311
:105550001A4413460D9213E71BF0010310937FF4D6
:10556000B6AE0D9B23EAE3730793BBE50E9C99F857
:105570000160236843EAE3730993234604338146B9
:105580000E93FEF70ABE099B13B91BF0010F02D060
:10559000149B0133D1E7012302E7219BDB1B11930D
:1055A0000D9B472B3FF440AE1D9B109347E68DF8B3
:1055B0006F10FFF71DB88DF86F10FFF718B90DF1D8
:1055C0007E037BE68DF86F10FFF766B88DF86F10DD
:1055D000FFF7ACB98DF86F10FFF734B98DF86F1085
:1055E000FFF7B0B88DF86F10FFF745B9908E400007
:1055F0008C8E40002DE9F0410C46ADF58D6D89890A
:10560000666EE589199621F002010646E069ADF85B
:105610000C1017464FF48061626AADF80E50984640
:105620001AAD0023079016A80992069300950495D9
:105630000291059101F082FC43463A4669463046A4
:10564000FEF72CFD051E07DB3046694601F0E6F843
:10565000002818BF4FF0FF35BDF80C305B0603D5AE
:10566000A38943F04003A381169801F069FC284602
:105670000DF58D6DBDE8F08138B5304B1B680546E2
:105680000C4613B19A6B002A38D0B4F90C2093B2AF
:1056900018070CD52069A8B113F001021ED0636968
:1056A00000225B42A361A260F0B1002038BDD906A0
:1056B0003CD5580726D4206942F00803A3819BB249
:1056C0000028E9D103F42072B2F5007FE4D0284627
:1056D000214601F069FCA3892069DDE7990758BFDD
:1056E0006269A2600028E0D1B4F90C301A06DDD559
:1056F00043F04003A3814FF0FF3038BD184601F05E
:10570000E5F8C2E7216B51B104F14003994204D09E
:10571000284601F07DF9B4F90C200023236300230F
:105720002069636022F024022060C5E742F0400255
:1057300009232B604FF0FF30A28138BD14004020B8
:10574000024B13B1024800F005B87047000000009A
:105750003D694000002301461A46184602F068BA27
:1057600002690B69934200F38D802DE9F04F03F13C
:10577000FF3801F1140700F1140B57F828205BF8EB
:1057800028304FEA880483B00132B3FBF2F90BEB07
:105790000403009407EB040A0193B9F1000F39D018
:1057A00000252E46BC46DE465CF8044BDEF8003091
:1057B000A2B209FB0255220C2C0C09FB0242ADB22D
:1057C000751B96B2C6EB134615FA83F306EB234618
:1057D0009BB243EA0643E2454FEA12454EF8043BCA
:1057E0004FEA2646E0D2009B5BF8033093B9019C58
:1057F000231F9B450CD254F8043C4BB9A4F1080379
:1058000002E01A68043B1AB99B4508F1FF38F8D347
:10581000C0F81080044601F0C5FE00282EDB09F117
:1058200001095D46002357F8041B28688AB29A1ABA
:105830000B0C12FA80F2C3EB104303EB224392B23B
:1058400042EA0342BA4545F8042B4FEA2343EAD221
:105850005BF828200BEB880382B91A1F93450BD203
:1058600053F8042C42B9083B02E01A68043B1AB909
:105870009B4508F1FF38F8D3C4F81080484603B0C0
:10588000BDE8F08F002070472DE9F04F016C9BB010
:105890000446279E92469B4641B1426C4A600123D2
:1058A00093408B6001F0A6FC00232364BBF1000F42
:1058B0005D4635DB002333609D4BAB4315D050462E
:1058C00059460022002303F063F8804600282DD0BB
:1058D000269A01231360289B002B00F0BD80954879
:1058E000186001381BB0BDE8F08F269A42F20F73A2
:1058F0001360BAF1000F0DD1C5F3130555B9289BFC
:105900008D48002BEED000F10803289A13601BB0DD
:10591000BDE8F08F289B8948002BE3D0C31CF4E737
:1059200001232BF000453360AB46C5E718AA19AB3D
:105930000192009352465B46204601F0D3FE2B0DA8
:10594000814671D0CBF3130242F07F51189FCDF8FE
:1059500050805046A3F2FF3641F440110022784BAC
:1059600002F0FAFB6CA3D3E9002302F0A9FD6CA3BB
:10597000D3E9002302F0F2FBCDE90201304602F048
:1059800039FD69A3D3E9002302F09AFD02460B46D4
:10599000DDE9020102F0E2FBCDE9040103F040F889
:1059A000002202900023DDE9040102F0FBFF002841
:1059B00040F07381029D162D00F25D81614B03EB77
:1059C000C503D3E9000152465B4603F009F80028FD
:1059D00000F0C5816B1E029300230E93BF1B7B1E3C
:1059E000069300F1548100230893029B002BC0F220
:1059F0004581069A0D9311461944002306910C9394
:105A0000249B092B2AD8052B40F35B86043B249367
:105A10000025249B023B032B00F24286DFE813F0B3
:105A2000D403C902DF036104189F199E3E4406F2A5
:105A30003243202B40F38E81C3F1400306F2124023
:105A40009D402AFA00F0284302F0C4FC0123013EE5
:105A5000A1F1F871149381E73B4843E700216164A9
:105A60002046259101F0A0FB4FF0FF330A93259AC1
:105A70000F9301230490206424920B93199B002B15
:105A8000C0F2D980029A0E2A00F3D5802D4B03EB89
:105A9000C203D3E90023CDE90823259B002BC0F2E4
:105AA000BA83DDE9085650462A463346594602F085
:105AB00031FE02F0B5FF804602F09CFC2A463346D8
:105AC00002F0FEFC0B4602465946504602F044FBEB
:105AD000049D08F130032B700A9B012B06460F46EC
